:100000000C94B2060C94CF060C94CF060C94B13429
:100010000C94CF060C94CF060C94CF060C94CF060C
:100020000C94CF060C94CF060C94501C0C940C1C12
:100030000C94DC2B0C94CF060C94CF060C94CF06BA
:100040000C94CF060C94CF060C94CF060C94CF06DC
:100050000C94CF060C94291D0C94CF060C94CF065B
:100060000C94CF060C94CF060C94CF060C94CF06BC
:100070000C94CF060C94CF060C94CF060C94CF06AC
:100080000C94CF060C94CF060C94CF060C94CF069C
:100090000C94CF060C94CF060C94CF060C94CF068C
:1000A0000C94CF060C94CF060C94CF0605010902E0
:1000B000A10185020901A1000509190129081500FE
:1000C0002501950875018102050109300931158165
:1000D000257F95027508810609381581257F9501D0
:1000E00075088106050C0A38021581257F95017572
:1000F000088106C0C00660FF0961A1010962150000
:1001000026FF009520750881020963150026FF006F
:10011000952075089102C005010906A1010507197E
:10012000E029E71500250195087501810295017503
:100130000881010507190029FF150026FF00950613
:100140007508810005081901290515002501950587
:1001500075019102950175039101C0000000000036
:10016000000000000000000000000000000000008F
:100170000000000000000000000000000000007E01
:100180000F00D4FFFFFFC700000078000000000050
:100190000000002A2B2800000000000000000000E2
:1001A00000000000000029000000002C1E34202167
:1001B0002224342627252E362D3738271E1F2021AE
:1001C00022232425263333362E37381F040506070D
:1001D00008090A0B0C0D0E0F101112131415161727
:1001E00018191A1B1C1D2F3130232D350405060745
:1001F00008090A0B0C0D0E0F101112131415161707
:1002000018191A1B1C1D2F3130354C00DA0281FFE2
:10021000D9F1DB20A4A62EAF00A0C0D30000A1C856
:10022000D30000AED580A81F408D14200064321486
:10023000783C1E1E140A05000101010101010101A3
:100240000102020202020202020203030303030389
:100250000303040404040404040505050505060657
:100260000606060707070707080808080909090915
:100270000A0A0A0B0B0B0C0C0C0D0D0D0E0E0E0FBB
:100280000F0F10101111111212131314141515164B
:10029000161717181819191A1A1B1B1C1D1D1E1EBC
:1002A0001F2020212222232424252626272829290D
:1002B0002A2B2C2D2D2E2F30313232333435363738
:1002C00038393A3B3C3D3E3F404142434445464736
:1002D00048494A4C4D4E4F50515354555658595A0F
:1002E0005B5D5E5F616264656668696B6C6D6F70B3
:1002F00072737577787A7B7D7E8082838587888A22
:100300008C8E8F91939596989A9C9EA0A2A3A5A758
:10031000A9ABADAFB1B3B5B7BABCBEC0C2C4C6C954
:10032000CBCDCFD1D4D6D8DBDDDFE2E4E7E9EBEE0D
:10033000F0F3F5F8FAFDFF2223252628292A2C2D93
:100340002F3032333536383A3B3D3E404243454705
:10035000494A4C4E5051535557595A5C5E6062643D
:100360006668696B6D6F71737577797B7D7F81834B
:100370008587898A8C8E90929496989A9C9E9FA14C
:10038000A3A5A7A8AAACAEAFB1B3B4B6B8B9BBBC6D
:10039000BEBFC1C2C3C5C6C7C9CACBCCCDCED0D1E2
:1003A000D2D2D3D4D5D6D7D7D8D9D9DADADBDBDBDA
:1003B000DCDCDCDCDCDDDDDDDDDCDCDCDCDCDBDB7B
:1003C000DBDADAD9D9D8D7D7D6D5D4D3D2D2D1D0CF
:1003D000CECDCCCBCAC9C7C6C5C3C2C1BFBEBCBBCC
:1003E000B9B8B6B4B3B1AFAEACAAA8A7A5A3A19F44
:1003F0009E9C9A98969492908E8C8A898785838108
:100400007F7D7B79777573716F6D6B6968666462E8
:10041000605E5C5A5957555351504E4C4A494745B6
:100420004342403E3D3B3A3836353332302F2D2C57
:100430002A29282625232200AF00AE616263646565
:10044000666768696A6B6C6D6E6F707172737475D4
:10045000767778797A3132333435363738393052E5
:100460004542545F2D3D5B5D5C233B27602C2E2F66
:1004700020202700204B00202043004B6579203AA4
:100480002020520020204400303020205300202023
:100490002020204350490042616C6C3A002F00201C
:1004A0004D563A004C617965723A008081828384AE
:1004B00085868788898A8B8C8D8E8F909192939474
:1004C000A0A1A2A3A4A5A6A7A8A9AAABACADAEAFB4
:1004D000B0B1B2B3B4C0C1C2C3C4C5C6C7C8C9CA2B
:1004E000CBCCCDCECFD0D1D2D3D400290014441A56
:1004F00000080015001700E000040016000743097B
:10050000000A00E1001D221B28060019000500005A
:1005100000E100E000E30091242B222A00130012E6
:10052000000C0018001C00280028000F000E430DCE
:10053000000B002A002A00372136001000110000AD
:1005400000E400E700904190412C4201001E001F92
:100550000020002100220001002E212F0038002D54
:1005600000870001002E222F0238022D0287020090
:100570000001000100010001000100010027002628
:1005800000250024002300010089003200300034DF
:1005900000330001008902320230023402330200CB
:1005A000000100010001000100010001001E021F06
:1005B0000220022102220201002E022F0238022D07
:1005C0000287020100E100E300E2009100E1000087
:1005D000000100010001000100010001008908265E
:1005E0000225022402230201008902320230023471
:1005F00002330201004C000100010090002C0000B9
:100600000001000100010001000100010029002B90
:10061000000000000000000100E000010038021EA0
:100620000200000100E100E300E20091000100008F
:1006300000010001000100010001000100000000B4
:1006400000520000000000010000004F0051005067
:1006500000000001004C00000000009000000000BD
:100660000001000100010001000100010000002B59
:1006700000000000003A000100000000000000003F
:100680000040000100E10000000000000001000047
:10069000000100010001000100010001003F003ED7
:1006A000003D003C003B0001004500440043004287
:1006B0000041000100265225520000010001000007
:1006C000000100010001000100010001002078216B
:1006D0007823782578277801002B782C782D782EB0
:1006E000782F7801003078317832780000000000EF
:1006F0000001000100010001000100017E00004531
:100700007E447E037E027E007E0000000000000525
:100710007E047E01000000000000000000007C005C
:1007200000010001000100010001000100010001C1
:100730000001000100010001000100417E437E40F4
:100740007E01000100010001000100010001000024
:100750000001000100010001000100010001000191
:100760000001000100010001000100427E437E40C3
:100770007E010001000100010001000100010000F4
:10078000000100010001000100010009025B0003FB
:100790000100A0FA09040000010301010009211170
:1007A000010001224400070581030800010904013A
:1007B00000020300000009211101000122220007AC
:1007C000058203200001070503032000010904023C
:1007D0000001030000000921110100012249000766
:1007E000058403200001120100020000000857598F
:1007F000000400010102000114034B0065007900B0
:10080000620061006C006C003400340000001003D2
:1008100059006F0077006B006500650073000000F1
:10082000040309040000000000003E5B4F5B3E0033
:100830003E6B4F6B3E001C3E7C3E1C00183C7E3CD9
:1008400018001C577D571C001C5E7F5E1C000018A2
:100850003C180000FFE7C3E7FF0000182418000061
:10086000FFE7DBE7FF0030483A060E00262979292A
:100870002600407F05050700407F05253F005A3CC4
:10088000E73C5A007F3E1C1C0800081C1C3E7F00F1
:1008900014227F2214005F5F005F5F0006097F0162
:1008A0007F00006689956A0060606060600094A2C5
:1008B000FFA2940008047E04080010207E2010008F
:1008C00008082A1C0800081C2A0808001E1010101E
:1008D00010000C1E0C1E0C0030383E383000060E86
:1008E0003E0E060000000000000000005F00000057
:1008F000000700070000147F147F1400242A7F2AB9
:100900001200231308646200364956205000000884
:1009100007030000001C224100000041221C0000CF
:100920002A1C7F1C2A0008083E080800008070303E
:10093000000008080808080000006060000020109F
:10094000080402003E5149453E0000427F4000003D
:100950007249494946002141494D33001814127F1C
:1009600010002745454539003C4A4949310041219D
:1009700011090700364949493600464949291E00F0
:1009800000001400000000403400000000081422A1
:100990004100141414141400004122140800020130
:1009A000590906003E415D594E007C1211127C002F
:1009B0007F49494936003E41414122007F41414142
:1009C0003E007F49494941007F09090901003E4134
:1009D000415173007F0808087F0000417F410000FB
:1009E0002040413F01007F08142241007F404040E9
:1009F00040007F021C027F007F0408107F003E4100
:100A000041413E007F09090906003E4151215E0037
:100A10007F091929460026494949320003017F010F
:100A200003003F4040403F001F2040201F003F4048
:100A300038403F0063140814630003047804030083
:100A40006159494D4300007F4141410002040810B3
:100A50002000004141417F000402010204004040A7
:100A60004040400000030708000020545478400034
:100A70007F284444380038444444280038444428FB
:100A80007F0038545454180000087E0902001824CE
:100A9000241C78007F080404780000447D40000096
:100AA0002040403D00007F102844000000417F406E
:100AB00000007C04780478007C0804047800384442
:100AC000444438007C1824241800182424187C007E
:100AD0007C080404080048545454240004043F448F
:100AE00024003C4040207C001C2040201C003C4056
:100AF00030403C004428102844004C9090907C00EA
:100B00004464544C44000008364100000000770063
:100B100000000041360800000201020402003C26E9
:100B200023263C0000000000000000000000000040
:100B3000000000000000000000000000C0F0F88C81
:100B400086C6E7FFFFFFFFFFFFFEFCFCF8E080002A
:100B50000000F0F0F00000C0E0F070700000000055
:100B60000000000000000000000000000000000085
:100B70000000F8F8F800000000000000000000008D
:100B80000000000000000000F8F8F80000F8F8F895
:100B90000000000000000000000000000000000055
:100BA0000000E0F0F0F0E0ECEEF7F37020007C7C69
:100BB0007C7E007E7E7E7F7F7F000080C0E07E5B4B
:100BC0004F5BFEC00000C000DCD7DEDEDED7DC00FD
:100BD000C000000000000000000000000000000055
:100BE0000000000000000000000000000000000005
:100BF000000000000080E07078686C64C7C7C7C759
:100C0000C7C7E73F1F0F3FFFFFFFFFFFFF3F0F007B
:100C10000000FFFFFF1E3FFFF3E1800000F8FCFE35
:100C20003636363EBCB8000E3EFEF080F0FE3E0E7C
:100C30000000FFFFFF060606FEFEFC7000E6F6F66B
:100C40003636FEFEFC000000FFFFFF0000FFFFFF46
:100C50000000000000000000000000000000000094
:100C600000000F1F3F7F7F7F7F7F3F1E0C001F1FF5
:100C70001F3F003F3F3F7F7F7F00307B7F783020EA
:100C80002030787F3B0003000F7F0F0F0F7F0F0096
:100C90000300000000000000000000000000000051
:100CA0000000000000000000000000000000000044
:100CB000000000003C7F6360E0C0C0C0C0C0C0C096
:100CC000C0FFFFC06030180F0303030100000000E5
:100CD00000000303030000000303030300010303F8
:100CE000030303030301007070393F1F0701000075
:100CF00000000103030303030303010000010303D6
:100D000003030303010000000303030000030303C4
:100D100000000000000000000000000000000000D3
:100D200000000000000000000000000000000000C3
:100D300000000000000000000000000000000000B3
:100D400000000000000000000000000000000000A3
:100D50000000000000000000000000000000000093
:100D60000000000011241FBECFEFDAE0DEBFCDBFD0
:100D700011E0A0E0B1E0E2E0FFE602C005900D92D4
:100D8000AC3BB107D9F726E0ACEBB1E001C01D9256
:100D9000A533B207E1F70E94032C0C942F370C9473
:100DA00000008F929F92AF92BF92CF92DF92EF920C
:100DB000FF9290916F01981305C090912704903293
:100DC00009F44BC080936F0190E290932704C82EE2
:100DD000D12CF12CE12C10922604C701B6012AE097
:100DE00030E040E050E00E944636605D603331F014
:100DF000C114D104E104F10409F460E26093250414
:100E000060E28AE0C816D104E104F10490F08AE0BF
:100E1000882E912CA12CB12CC701B601A5019401FB
:100E20000E944636CA01B901A50194010E944636C6
:100E3000605D6093240420E284E6C816D104E104D6
:100E4000F10448F0C701B60124E630E040E050E08C
:100E50000E944636205D2093230483E294E0FF90B5
:100E6000EF90DF90CF90BF90AF909F908F900895BC
:100E7000FC019091FC038181981321C08091FD03B6
:100E8000882319F0928189131AC08091FE03882368
:100E900019F09381891313C080910004882319F0FD
:100EA000958189130CC08091FF03882351F091E054
:100EB0002481281301C090E0892F8170089581E07A
:100EC000FCCF80E0FACF482F2091FA039091C10324
:100ED00057E0291302C080E0089530E0529FF001EE
:100EE000539FF00D1124EE53FC4F8181681306C00F
:100EF0008081481303C085818111EECF2F5F3F4F62
:100F00002770E7CFE8EDF0E080818E7F808310923C
:100F1000E2001092DA001092E100A0EEB0E08C91B5
:100F200081608C9380818F77808319BCA7EDB0E0BE
:100F30008C918E7F8C9380818F7E80831092A90309
:100F400008952091E4003091E50095E6A9012091F3
:100F5000EC00822F817020FF06C08091E80080FFA6
:100F600006C080E008952091E80022FD1AC080911B
:100F7000B703882389F0853089F08091EB0085FDE7
:100F80000FC02091E4003091E50042175307F9F2B9
:100F90009150E1F684E0089582E0089583E0089599
:100FA00081E008958091B90387FF13C08091E80024
:100FB00082FF06C08091E8008B778093E80004C030
:100FC0008091B7038111F2CF08958091B7038823F0
:100FD000D9F38091E80080FFF8CF8091E8008E7708
:100FE000ECCF982F9093E900242F762F50E08917AB
:100FF00031F07091EC002091ED005091F00021FD56
:1010000007C09F5F973071F78093E90081E00895F2
:101010003091EB003E7F3093EB003091ED003D7F4F
:101020003093ED003091EB0031603093EB00709322
:10103000EC002093ED005093F0002091EE0027FD8E
:10104000E0CF80E00895B0E0A0E0E9E2F8E00C94A1
:10105000EB35C8EDD0E088818F7E8883E7EDF0E046
:1010600080818160808384E082BF81E08093A903D6
:1010700088818E7F888302EE10E0F8011082109242
:10108000DA0081EEC82ED12CF601108288818F778C
:10109000888388818068888388818F7D888319BC54
:1010A0001092B7031092B8031092B6031092B503D2
:1010B00090EEE92EF12CF70180818B7F808388816F
:1010C0008160888342E060E080E00E94F107F601E1
:1010D00080818E7F8083F801808181608083808120
:1010E00088608083F70180818E7F80838881806122
:1010F0008883CDB7DEB7E8E00C940736FC01809119
:10110000BF039091C00386179707A0F06115710582
:1011100029F49091E8009E779093E80090E06115A3
:10112000710551F4911108C08091E80082FF34C02C
:1011300080E00895BC01F2CF8091B7038823C1F10C
:101140008530C1F18091E80083FD30C08091E800D6
:1011500082FDEACF8091E80080FFE1CF8091F3002B
:101160002091F200382F6115710519F028303105F2
:1011700058F091E02830310509F090E02091E80026
:101180002E772093E800CBCF81918093F1006150BE
:1011900071092F5F3F4FE7CF8091B703882341F05C
:1011A000853041F08091E80083FFBECF81E0089553
:1011B00082E0089583E00895089508958091AC0336
:1011C000089587E797E7909301088093000888E1E6
:1011D0009AE00FB6F894A895809360000FBE9093A4
:1011E0006000FFCF2FB7F8946091A5037091A6031C
:1011F0008091A7039091A8032FBF0895FC01680F69
:10120000791F8FEF91E32191822728E030E087FF5B
:1012100009C0880F892721503109C9F7E617F70758
:1012200091F70895880FF7CFFA01811101C0FB01F2
:1012300009950895E2EBF2E0118282818460828355
:10124000089580916903982F9E7F61F48170826078
:101250008093690380916C03873918F086E9809345
:101260006C0308958E31B0F381708C61F1CFAF9231
:10127000BF92DF92EF92FF920F931F93CF93DF9372
:10128000082F162FE901E42FF0E0E95CFD4F611112
:1012900010C0E4915E2F4E2F4983E8835A83DF917B
:1012A000CF911F910F91FF90EF90DF90BF90AF9083
:1012B0000895E62EF12C4491D42EE42FF0E026E0A0
:1012C000829FC00111242FEF30E0B9010E94CD357B
:1012D000802F90E0880F991F55E5569FD001579FAA
:1012E000B00D11248A1B9B0B982F990F890F590160
:1012F000AE18BF08AE9ED001AF9EB00DBE9EB00D21
:1013000011245B2F189F80011124012F11275901EF
:10131000A01AB10AAE9E8001AF9E100DBE9E100DA8
:1013200011245901A81AB108AE9CC001AF9C900DC0
:10133000BE9C900D1124892F9927281B390B2E9FB5
:10134000C0012F9F900D3E9F900D1124E92F623018
:101350007105A1F050F46115710509F49DCF61305C
:10136000710581F0EB2F512F97CF6430710569F033
:1013700080F06630710509F48FCFF4CFE42F4B2F46
:10138000592F8ACFE42F412F87CFEB2F542F492F8E
:1013900083CF4B2F5D2DE12F7FCFCF93DF93E1E004
:1013A000F4E083819481A581B681E90188839983E2
:1013B000AA83BB831482138216821582DF91CF9198
:1013C000089580E0089563E070E087E192E00E9474
:1013D000FE0890911602891318C0E0911702EB30B5
:1013E000A4F488E0E802F0011124EF5FFE4F0680CC
:1013F000F781E02D309749F02AE332E0409119025D
:101400006AE172E08091180209950895E1E0F1E047
:10141000A2E0B2E056968C91569780A757968C9191
:1014200083AF0895F894E82FE295EF70F0E031A1D2
:10143000282F2F7081E090E001C0880F2A95EAF7ED
:10144000982F9095932391A392A1892B82A37894AE
:1014500008959091790292FF10C041E0282F2471E5
:10146000243009F040E031E0282F2871283009F0BD
:1014700030E0431711F02CE0822793FF10C041E0C9
:10148000282F2471243109F040E031E0282F287101
:10149000283109F030E0431711F02CE08227309119
:1014A0007A0230FF10C051E0282F2171213009F05D
:1014B00050E041E0282F2871283009F040E054170F
:1014C00011F029E0822731FF10C041E0282F21715F
:1014D000213109F040E031E0282F2871283109F04E
:1014E00030E0431711F029E0822794FD877E0895AC
:1014F00082389105B9F1B0F48133910509F47DC0CA
:1015000048F48932910509F46DC08A32910509F4D5
:101510007BC008958533910509F45FC08933910537
:1015200009F10895833E9105D9F138F4803E910583
:1015300029F1823E910579F10895863E9105D9F110
:10154000873E910509F43EC0843E910541F5209106
:101550007A0221FF24C08091790284FD19C087EEB0
:1015600090E0089520917902237009F05AC02091EB
:101570007A0223FF14C089E290E008952091790255
:1015800020FD38C030917A0230FF09C024FF43C0EB
:1015900090E080E008952091790222FDF7CF089530
:1015A0002091790222FD3AC030917A0230FD39C093
:1015B00024FFF5CFEDCF2091790223FFF0CF24FD5A
:1015C000E7CFCDCF2091790223FD2EC030917A0252
:1015D00031FFEECF84EE90E008952091790225FF4F
:1015E000DECFC9CF2091790225FD21C020917A025A
:1015F00023FFD5CF89E390E0D2CF2091790226FF57
:10160000CECF8AE290E008952091790226FFC7CFDD
:1016100081E390E0089583EE90E0089582EE90E0FB
:10162000089580EE90E0089586EE90E0089585E3B9
:1016300090E008951F93CF93DF930E94780AEC0106
:10164000C11582E5D80708F03FC0C11590E5D9075C
:1016500008F0C2C0C83ED105C0F4C03ED10580F438
:10166000C53AD10548F4C430D10550F4C130D10594
:1016700039F0D0E0C0E004C0CD3CD105D0F3D06556
:10168000CE01DF91CF911F910895C11580E4D80755
:1016900008F053C0C11590E2D90708F0B7C0C115D2
:1016A00081E0D80730F38D2F0E94290A182FCE0130
:1016B00099270E94780AC12FD0E0DC2FCC27CC27B5
:1016C000DF71C82BD92BDCCFC03892E5D907A8F43D
:1016D000C03682E5D80708F063C0C03492E5D90768
:1016E00008F049C0C03282E5D80788F1CF71D0E058
:1016F000DC2FCC27C16FD06AC3CFC03C92E5D9079D
:1017000080F48C2F8F71C03AD24508F45EC00E94DD
:10171000290AC82FD0E0DC2FCC27CC27DF71D0627C
:10172000AFCFC03E82E5D80708F0A3CFDC2FCC278F
:10173000CC27DF71C06FD06AA3CFCE0199270E945A
:10174000780ACC27DF70C82BD92BD06A99CF2C2FE1
:101750002695269590E2299F900111248C2F837065
:10176000C1E0D0E002C0CC0FDD1F8A95E2F7C22BAA
:10177000D32BDD6885CF2C2F26952695277080E208
:10178000289F900111248C2F8370C1E0D0E002C00B
:10179000CC0FDD1F8A95E2F7C22BD32BDC6870CF0C
:1017A0002C2F26952695277090E2299F90011124D1
:1017B0008C2F8370C1E0D0E002C0CC0FDD1F8A9572
:1017C000E2F7C22BD32BDA685BCFC82FD0E0DC2F37
:1017D000CC27C46FD06A54CF8C2F8F710E94290AF6
:1017E00055E0D695C7955A95E1F7CF70D0E0DC2F3C
:1017F000CC27282F30E084FF05C044E0220F331FA0
:101800004A95E1F7C22BD32BD0693ACF8D2F8F7138
:101810000E94290A182FCE0199270E94780AC12F09
:10182000D0E0DC2FCC27CC27DF71C82BD92B77CF8A
:1018300080959091AA0398239093AA03089580918C
:10184000FA039091C103981301C008958F5F8770C8
:10185000FACF292F983078F5863068F590E036E099
:10186000239F800D911D1124682F677023E09695AA
:1018700087952A95E1F7FC01EE0FFF1FE80FF91F8E
:10188000E053FE4F50E040E080E0219130E0062E32
:1018900002C0369527950A94E2F721703327042E6B
:1018A00001C0220F0A94EAF7822B4F5F5F4F43304B
:1018B000510559F7089580E00895292F983098F53B
:1018C000863088F590E036E0239F800D911D11242D
:1018D000282F277041E001C0440F2A95EAF723E042
:1018E000969587952A95E1F7FC01EE0FFF1FE80F0B
:1018F000F91FE053FE4F30E020E070E05191DF012E
:101900001197CB01022E02C0969587950A94E2F7B3
:10191000817081958527842385278C932F5F3F4F86
:101920002330310559F708958093770308959091F6
:10193000770321E030E0F90101C0EE0F8A95EAF764
:10194000D90102C0AA0FBB1F6A95E2F7EA2B01C0BA
:10195000220F4A95EAF7892F8E23E81305C0292B19
:10196000822F0E94940C089520952923F9CF21E01D
:1019700030E001C0220F8A95EAF720958091770325
:1019800082230E94940C08959091E9018095892307
:101990008093E901282F277069F4891759F09091F5
:1019A0007A0292FF07C08695869586950E94B70CAD
:1019B0001092E901089521E030E001C0220F8A95DC
:1019C000EAF780917703822B0E94940C089580930C
:1019D000F4010895982F92959F7011F0892F94E04B
:1019E000282F2695269511F09E5F822F869509F067
:1019F0009F5F892F0895CF93C82F80910E048C1775
:101A000051F00E94F20860930F04709310048093C9
:101A1000110490931204C0930E04CF910895B0E086
:101A2000A0E0E5E1FDE00C94EB35FC01EB019091C9
:101A30001304911101C094E06081718191509B0168
:101A4000092E02C0359527950A94E2F7D901092E8F
:101A500002C0AA0FBB1F0A94E2F76A1B7B0B7183BB
:101A60006083628173818B01092E02C015950795F1
:101A70000A94E2F7D80102C0AA0FBB1F9A95E2F7B9
:101A80006A1B7B0B7383628381E80138BFEF1B07FE
:101A90002CF0802F003811050CF08FE78D83213852
:101AA0009FEF390754F1203831054CF5922F91956D
:101AB0009C83442319F081958D832C830E94F20826
:101AC0002D81211103C02C812223D9F060931404AD
:101AD0007093150480931604909317048091180452
:101AE0009BE0980F973120F4080F009318041D8293
:101AF000CDB7DEB7E8E00C94073621E8D7CF2FE763
:101B0000D5CFC0901404D0901504E0901604F09046
:101B100017046C197D098E099F09643671058105CA
:101B20009105E0F210921804D9CFFC01DB0122816B
:101B3000338191E821388FEF38072CF0922F20382D
:101B400031050CF09FE712969C931297208131810A
:101B500021388FEF3807A4F0203831059CF4139614
:101B60002C931397442339F0919512969C931297D6
:101B7000219513962C93118210821382128208955C
:101B800021E8EDCF2FE7EBCF382F20E287FF02C00F
:101B900031952DE24AE0832F642F0E942436905D18
:101BA0009093C90181110BC02093C80120E22093BA
:101BB000C70120E22093C60186EC91E00895642FCE
:101BC0000E942436905D9093C801832F64E60E94A2
:101BD0002436882361F3805D8093C701EBCF9C019D
:101BE000860F971F37FD07C077FD04C097FF02C01F
:101BF0008FEF9FE7089577FFFDCF97FDFBCF80E044
:101C000090E80895CF938CE992E00E943807C82F9E
:101C1000882379F0E091A203F091A303309749F073
:101C200082E08093FB030480F581E02D8BEF93E04D
:101C300009959091FC0386E0EBEFF3E0DF01282F9C
:101C40001D922A95E9F79093FC03ACE9B2E001906C
:101C50000D928A95E1F781E0C11103C0911101C095
:101C600080E08170CF9108952FE2280F283078F41A
:101C700081E090E001C0880F2A95EAF72091FC03EB
:101C8000662331F0822B8093FC030E94020E08959C
:101C900080958223F8CFCF93DF93682F81E06A305D
:101CA00019F06D3031F480E00E94D90EDF91CF91B0
:101CB0000895809131069091320626E0FC01ABE256
:101CC000B6E001900D922A95E1F7603E08F458C005
:101CD00026E0FC0111922A95E9F7C0913106D091D6
:101CE000320646E050E0BE018BE296E00E94C1362B
:101CF0009E012B523440892B41F1C90145E0969554
:101D000087954A95E1F741E050E0BA0102C0660FBD
:101D1000771F8A95E2F7CB016091290470912A041C
:101D2000862B972BB9016B5F7F4FE5E07695679522
:101D3000EA95E1F702C0440F551F6A95E2F7842B3C
:101D4000952B90932A04809329042A5F3F4F40915A
:101D50002804642F70E0C9010E94CD35481B46302D
:101D600010F4240F311D211572E0370710F030E018
:101D700020E0255D3B4F309332062093310696CF0D
:101D8000F6E06F9FB00111246C5D774F46E050E0A4
:101D90000E94AB36A2CFCF93DF93EC01FE0184917A
:101DA000811103C0DF91CF9108950E944B0E2196BF
:101DB000F5CFCF93382FE0913106F0913206EB52F8
:101DC000F44020912804622F70E0CF010E94CD35AD
:101DD000281B822F332361F066E00E941836C82F3B
:101DE000C15010F4CF91089580E20E944B0EF8CFBD
:101DF0009F01280F311D2115324018F080E0F0E0DE
:101E0000E0E08E0F9F2F911D855D9B4F90933206D2
:101E100080933106E7CF8091AA039091F301892B3B
:101E20008093BE019091F201992391F0892B8093C8
:101E3000BE0120E080EC91E0FC013191CF01311135
:101E40002F5FF1E0863C9F07B9F721111092F20154
:101E500048E050E06AEE71E08EEB91E00E94C136FE
:101E6000892BA9F088E0EEEBF1E0AAEEB1E0019059
:101E70000D928A95E1F7E091A203F091A3033097C8
:101E800031F00280F381E02D8EEB91E00995089509
:101E9000E0ECF1E086E0DF011D928A95E9F710920F
:101EA000F3010E940B0F0895AAE2B0E0EAE5FFE01B
:101EB0000C94F03589EB93E02091F100DC012D9337
:101EC000CD01B3E0813C9B07B9F78091BA03833021
:101ED00009F472C0B8F4813009F449C0823009F4C1
:101EE000B5C08091E80083FF8DC28091B9039091C5
:101EF000BA039A3008F086C2E92FF0E0EF5CF84CA4
:101F00000C9468368A3009F490C08B3009F471C0A3
:101F1000893039F78091B903813219F78091BD0377
:101F20009091BE03009711F00297D9F68091E800D6
:101F3000877F8093E8008091E80082FF38C090910D
:101F4000F3008091F200029731F48091F10081302A
:101F500011F0863021F48091F1008093AC038091E0
:101F6000E8008B778093E8000E94D207BACF809177
:101F7000B903813A09F0B5CF8091E800877F80935B
:101F8000E8008091BD039091BE03892B61F468E065
:101F90008DEA93E070E00E947E088091E8008B77E4
:101FA0008093E8009ECF60E090E080E0F3CF8091E6
:101FB000B7038111C0CF95CF8091B903813A09F061
:101FC00090CF8091BD039091BE03892B09F089CFFA
:101FD0008091E800877F8093E8008091E80080FF8F
:101FE000FCCF809169018093F1008091E8008E77A9
:101FF000B9CF8091B903813209F073CF8091BD03CD
:102000009091BE03892B09F06CCF8091E800877F07
:102010008093E8000E94D2078091BB0380936901FE
:102020001092AA030E94480F5CCF8091B9038132BD
:1020300009F057CF8091E800877F8093E8000E94E5
:10204000D2078091BC038093AB034BCF8091B9033F
:10205000813A09F046CF8091E800877F8093E800BD
:102060008091E80080FFFCCF8091AB03BCCF80382B
:1020700099F0823809F0C6C18091BD038F70873016
:1020800008F0C0C18093E9008091EB0085FB8827B0
:1020900080F91092E90006C08091B5039091B603D3
:1020A000911182609091E800977F9093E80080936F
:1020B000F1001092F1008091E8008E779FC1882393
:1020C00009F48DC1823009F09DC18091BB0381115B
:1020D00090C18091BD038F702FEF280F263008F03C
:1020E00091C18093E9002091EB0020FF82C19330E1
:1020F00031F48091EB0080628093EB007AC1909183
:10210000EB0090619093EB0021E030E001C0220FE2
:102110008A95EAF72093EA001092EA008091EB009A
:102120008860EACF81116EC11091BB031F77809147
:10213000E3008078812B8093E3008091E800877F23
:102140008093E8000E94D2078091E80080FFFCCFD6
:102150008091E30080688093E30082E0111183E0C6
:102160008093B7034FC18058823008F04BC1209153
:10217000BB033091BC032C3DE3E03E07A1F583E0B7
:102180008A838AE289834FB7F894DE01139620E0B0
:102190003EE051E2E32FF0E050935700E49120FF3E
:1021A00003C0E295EF703F5FEF708E2F90E0EA3052
:1021B000C0F0C7968D939D932F5F243159F74FBF81
:1021C0008091E800877F8093E8006AE270E0CE01AA
:1021D00001960E947E088091E8008B778093E8004A
:1021E00011C1C096E7CF8091BD039091BE03432FEC
:1021F00055274330510509F44AC078F5413051055F
:1022000009F47AC08BE590E0EBE8F7E04230510545
:1022100009F0F8C02091E800277F2093E800209182
:10222000BF033091C0038217930708F49C0140E07C
:102230002115310509F065C0411163C08091E800A6
:1022400082FDC9CF8091B703882329F2853019F226
:102250008091E80083FFF2CFBECF4132510509F4EF
:102260003CC04232510509F0CDC08330910508F0E1
:10227000C9C0FC01EE0FFF1FE155FE4F0190F08138
:10228000E02D84559E4FDC018C9190E01AC03327DD
:1022900021303105D1F02115310561F022303105B1
:1022A00009F0B0C0E8EFF7E0E4918E2F90E0E8EF9E
:1022B000F7E007C0E0E2F8E0E4918E2F90E0E0E282
:1022C000F8E0009709F49EC0A5CFEEE0F8E0E491B5
:1022D0008E2F90E0EEE0F8E0F4CF8330910508F027
:1022E00091C0880F991FFC01EB54FE4F0190F081C3
:1022F000E02D89E090E08ECF82E190E0E6EEF7E01D
:1023000089CF8091B703882309F465CF853009F41C
:1023100062CF8091E80083FD5ECF8091E80082FD6E
:102320008DCF8091E80080FF83CF9091F300809162
:10233000F2002115310519F08830910550F041E087
:10234000089709F040E08091E8008E778093E800DC
:102350006FCF44914093F10031962150310901969D
:10236000E8CF803809F04EC08091E800877F8093E5
:10237000E8008091B8038093F1009DCE811142C0A6
:102380001091BB031230F0F58091E800877F8093B5
:10239000E8001093B8030E94D207112311F084E0E3
:1023A00005C08091E30087FDFACF81E08093B703F9
:1023B00042E061EC81E00E94F10742E261EC84E0DE
:1023C0000E94F10742E261EC82E00E94F10742E2E2
:1023D00060EC83E00E94F1078091B70313C0809105
:1023E000BB03813079F481E0933009F080E0809381
:1023F000B6031092E9008091E800877F8093E8009F
:102400000E94D2078091E80083FF0AC08091E80013
:10241000877F8093E8008091EB0080628093EB00DF
:10242000AA96E3E00C940C36882321F00E94180C45
:102430000E940B0F0895882339F09091AA03982BDE
:102440009093AA030E940B0F0895882349F19CEFF3
:10245000980F913A80F4E0ECF1E026EC31E09191B4
:10246000891303C0DF0111971C922E173F07B9F79C
:102470000E940B0F089590E2980F983050F48770E7
:1024800091E001C0990F8A95EAF7892F0E94180CF4
:10249000EFCF93E3980F933118F460E00E94340E6D
:1024A00008950F931F93CF93C82F882341F18CEF8A
:1024B0008C0F813AB0F500EC11E086EC91E0F80168
:1024C0002191C21701F18E179F07D1F7EFEF80E03E
:1024D000D8019D918D01C91781F0EF3F19F4911139
:1024E00001C0E82F8F5F863099F7EF3F31F00E2E55
:1024F000000CFF0BE254FE4FC2830E940B0FCF91E2
:102500001F910F910895E0ECF1E02191C21303C0F7
:10251000DF0111971C928E179F07B9F70E940B0FCE
:10252000D5CF80E28C0F883068F4C77021E030E0AE
:1025300001C0220FCA95EAF78091AA03822B8093EB
:10254000AA03DBCF83E38C0F8331C8F661E08C2FC5
:102550000E94340ED4CF0F931F93CF93DF93EC01DF
:10256000FC0101900020E9F78F0101501109C0170B
:10257000D10728F0DF91CF911F910F910895899194
:102580000E944B0EF4CF0F931F93CF93DF938B01D9
:10259000EA019091B703943061F58093E9008FEFE1
:1025A0009091E800815095FD06C095ED9A95F1F760
:1025B00000008111F5CF8091E80085FF1AC00E94CC
:1025C000A107811111C08091E80085FD06C08091AE
:1025D000E8008E778093E800F2CFF80181918F01B7
:1025E0008093F100219779F78091E8008E778093AE
:1025F000E800DF91CF911F910F91089546E050E0E0
:10260000BC0184E00E94C3120895CF93DF93EC01D4
:1026100048E050E0BC0181E00E94C31288E0FE0166
:10262000ADEAB3E001900D928A95E1F7DF91CF9189
:10263000089560916B018091690380FF20C08091B3
:102640006A0143E0849FC00111248B549D4F539A2B
:102650002BB1277F3BB138605FB7F894FC01649FD2
:10266000E00DF11D1124BF0168177907D1F45FBF98
:102670008FE594E00197F1F700C000000895809184
:102680006C0190916D0123E0829FF0011124EB54C5
:10269000FD4F8917A0F61182108212828F5F339648
:1026A000F8CFFC014191CF01E8E03BB9000000C048
:1026B00047FF2BB9440F000000C000C000C02BB979
:1026C00000C0EA9591F7D0CFEF92FF921F93CF937E
:1026D000DF93EC0110E0EE24EA94F12C60916E019E
:1026E000161770F00E9419139A818C8190FF2AC0EE
:1026F0008F5F8C83DF91CF911F91FF90EF900895B2
:1027000020916C01422F410F5527551FCA019A0194
:10271000220F331F280F391F2B543D4F40916C035C
:10272000473908F046E970E0C7010E943236962F1B
:102730008C8160916B03199F800D11240E943709D1
:102740001F5FCCCF8150D5CF9091690390FF0EC011
:1027500090916C0120916D0133E0939FF001112461
:10276000EB54FD4F921718F00E94191308958183BE
:10277000608342839F5F3396F5CFA3E0B0E0E3EC44
:10278000F3E10C94F1359091690390FF0DC0473946
:1027900008F046E99E012F5F3F4F0E9437094B81A9
:1027A00069818A810E94A4132396E2E00C940D367D
:1027B000CF93DF93EC01E9E6F3E0438162818C8102
:1027C0000E94BD138C818F5F8C83DF91CF91089520
:1027D000CF93DF93EC01EC81F0E0E95CFC4F449196
:1027E000E9E6F3E0628181810E94BD138C818F5FF5
:1027F0008C83DF91CF910895E9E6F3E080818E7FAD
:1028000080830E941A09E2EBF2E082818160828378
:102810000E9419130895B0E0A0E0E1E1F4E10C9406
:10282000E9357C015B016A0180916A0201E010E0F8
:102830008A3010F40AE010E0C1E0D0E0B501C70131
:10284000F6010995811104C021960C171D072CF47F
:10285000CDB7DEB7EAE00C940536CC9F9001CD9F52
:10286000300D300D112490E080E045E34A95F1F7FA
:102870000000019682179307C1F7E0CF8091010213
:10288000811119C082E390E02091E30027FD10C080
:10289000EFE3FCE93197F1F700C000000197A1F7E1
:1028A00082E0809301020E9482071092B70303C066
:1028B00081E08093010281E090910102913011F05A
:1028C00080E0089508950E943E14882359F0E09115
:1028D000A203F091A303309729F00190F081E02D3D
:1028E0000995089580E008950F931F930E943E1468
:1028F000882329F00E94F2081F910F9108950E94E9
:10290000F20800916B0210916C0220916D023091DF
:102910006E02600F711F821F931FEECF54985C9A56
:10292000879A8F9885E08A95F1F7000089B187989A
:102930008F9A90EA9A95F1F790E024E09595879523
:102940002A95E1F78095909581700895CF93DF9354
:1029500080910104CEE18111CDE180910204D0E0AB
:10296000882329F080910304DEE18111DDE10E94DA
:102970008E1481110FC08D2F80936A01C0936B015B
:10298000CD0F10926C01C0936D01C0936E01DF9169
:10299000CF91089580E0F0CF80910104F901808308
:1029A0000E94A61408951F93CF93DF93182FEB0175
:1029B0000E9451128FE99FE00197F1F700C00000DB
:1029C0002197C1F7812F0E942512DF91CF911F918E
:1029D00008951092AA030E94480F2FEF84E39CE011
:1029E000215080409040E1F700C0000088E19AE06B
:1029F0000FB6F894A895809360000FBE9093600086
:102A0000FFCFCF93DF93C9ECD2E060E0CE010E940C
:102A1000FB362196C11584E0D807B9F7DF91CF9135
:102A200008951F93CF93DF93122F8730E0F468301F
:102A3000D0F44630C0F4C42FD0E0CC0FDD1F9CE0B2
:102A4000699FC00DD11D112490E6899FC00DD11D35
:102A50001124632FCE0189960E94FB36612FCE018F
:102A60008A960E94FB36DF91CF911F910895AF9215
:102A7000BF92CF92DF92EF92FF921F93CF93DF939B
:102A80008BEEC82E84E0D82ED0E07601C0E014C0D2
:102A9000F50125913491412F6C2F8D2F0E94111536
:102AA00082E0A80EB11C1F5F163091F78CE0E80E93
:102AB000F11CCF5FC83019F0570110E0E9CFDF5F9C
:102AC00080E6C80ED11CD73001F7DF91CF911F915E
:102AD000FF90EF90DF90CF90BF90AF90089588E285
:102AE00090E00E94FB360895CF93C82F6FEF8111BD
:102AF00063E285E290E00E94FB366FEFC11169E06E
:102B000086E290E00E94FB366FEFC11164E087E23D
:102B100090E00E94FB36CF91089580E00E947415EA
:102B200060E070E0CB010E946F150E9437150E9493
:102B3000011581E00E94741508950F931F93CF93A0
:102B4000DF93873030F5683020F5463010F5C42F1C
:102B5000D0E0CC0FDD1F2CE0629FC00DD11D1124F1
:102B600030E6839FC00DD11D1124CE0189960E94AD
:102B7000D736082F10E0102F0027CE018A960E942A
:102B8000D7369801282BC901DF91CF911F910F9162
:102B9000089590E080E0F8CF462F783040F466301A
:102BA00030F4873020F4672F0E949D15089590E03F
:102BB00080E00895CF92DF92FF920F931F93CF93FF
:102BC000DF936C01009177038091F401082BC6E03C
:102BD000D0E010E0FC2EC8010C2E02C09595879520
:102BE0000A94E2F780FD0CC02197A0F7F12C8F2DFD
:102BF000DF91CF911F910F91FF90DF90CF900895BB
:102C0000B6018C2F0E94CC150E941A0B019761F31C
:102C1000EECFCF93DF93EC010E94DA15BE010E9444
:102C2000CC150E941A0BDF91CF910895FC012481ED
:102C30002223C1F0808191810E94091692959F7094
:102C4000963091F058F4925F9F70923058F4803F24
:102C500019F030F4883E30F481E008959A5FF4CFA3
:102C6000843FD1F380E00895883EB0F3813FD1F7EF
:102C7000F3CFA6E0B0E0EFE3F6E10C94F035498342
:102C80005A8349815A819923A1F0222391F0CA01E4
:102C90000E94DA15182F682F89819A810E945D0C95
:102CA00069817A81812F0E94CC152696E3E00C94ED
:102CB0000C36CA010E94290C182FF2CF88E290E04E
:102CC0000E94D736682F70E090E080E0089585E29A
:102CD00090E00E94D736833289F486E290E00E9429
:102CE000D736893059F487E290E00E94D73691E0D8
:102CF000843009F090E0892F8170089580E0FCCF46
:102D0000B0E0A0E0E6E8F6E10C94EB356C017B0165
:102D100064E670E088E70E942B338C01E601EC0C3E
:102D2000FD1C17FD0BC0FE01849164E670E00E945B
:102D300097338C012196CE15DF0599F70E940D344B
:102D400081E00115110509F080E0CDB7DEB7E8E0BC
:102D50000C94073680919E039091A103911103C0BA
:102D600091E089270895882369F062E070E089E3A3
:102D700094E00E948016811103C080919E03089503
:102D800010929E0380919E03EBCFCF93C0919E0340
:102D90008091A1038823D1F00E94F208605A754106
:102DA0008F4F9F4F60939A0370939B0380939C0374
:102DB00090939D03C11108C062E070E087E394E046
:102DC0000E948016811105C0C0919E038C2FCF9167
:102DD000089581E080939E03F7CFB0E0A0E0E3EF99
:102DE000F6E10C94E73549015A016B017C010E9420
:102DF00021098401A4016A2D7B2D88E090E00E94C6
:102E00000D3794014A2D5B2DB601C70100E20E94E7
:102E10009036622F84E290E00E94FB36CDB7DEB799
:102E2000ECE00C940336A3E0B0E0E9E1F7E10C94A8
:102E3000ED35082FF62E142FE22E8091690380FFC6
:102E400043C020916A03201308C090916B0396132E
:102E500004C090916C03941729F09091B402926091
:102E60009093B402E82FE695F0E0EB56FE4F908188
:102E70009093B2028E7F823059F5412F173908F0B6
:102E800046E99E012F5F3F4F6F2D802F0E9437092B
:102E90004B8169818A810E94A41300936A03F09296
:102EA0006B0310936C03EE2079F02091690360911D
:102EB0006D0370916E03302F4F2D512F80916F0352
:102EC000909170030E94ED162396E6E00C9409366B
:102ED000923019F410916C03E0CF963011F09930D4
:102EE000E1F6022FDACFE9E6F3E043812FE0421B5F
:102EF00008F440E021E0628181810E941317089567
:102F0000E9E6F3E043812FE0420F08F44FEF21E0C0
:102F1000628181810E9413170895E9E6F3E06281DE
:102F200021E1621B08F460E021E0438181810E947D
:102F300013170895E9E6F3E0628121E1620F08F4D6
:102F40006FEF21E0438181810E9413170895E9E624
:102F5000F3E0818121E04381628181510E94131756
:102F60000895E9E6F3E0818121E0438162818F5E8B
:102F70000E941317089580916D03882319F08150E2
:102F800080936D032091690330916A0340916B0334
:102F900050916C0360916D0370916E0380916F038B
:102FA000909170030E94ED16089580916D03833017
:102FB00018F48F5F80936D032091690330916A0349
:102FC00040916B0350916C0360916D0370916E039F
:102FD00080916F03909170030E94ED160895E9E6C9
:102FE000F3E083E0808311828FEF828386E983831D
:102FF0001482A2EBB2E012968C9112978360129623
:103000008C93758123E030E04FEF56E960E08681D4
:1030100097810E94ED16089590917A0292FB2227E3
:1030200020F9281779F080FB92F990937A02609149
:10303000790270917A0284E090E00E94193782E070
:103040000E94C40C089590E080E00E94E536863E20
:103050009E4F19F40E946716089580E00895B0E02D
:10306000A0E0E5E3F8E10C94EC357901C82F880F76
:10307000DD0B41155105A9F0FE0193E0EE0FFF1F96
:103080009A95E1F7EF5FFE4F818192818E5F9D4FB0
:10309000208130E04217530708F49A01A9010E94E9
:1030A000CE36CE010E945735D82E8823D1F0011597
:1030B0001105B9F083E0CC0FDD1F8A95E1F7FE0121
:1030C000EF5FFE4F438150E00417150708F4A80195
:1030D000CF5FDE4F6C817D816E5F7D4FC7010E94A7
:1030E000CE368D2DCDB7DEB7E7E00C940836A5E0DF
:1030F000B0E0EDE7F8E10C94E9358D83E62E5A0156
:10310000F22E680180916A028A3028F080E02596CC
:10311000EAE00C9405368D818830C4F31A82198256
:103120008A836B832C8363E070E0CE0102960E9459
:10313000FE088983E0922901F0923C0110E000E052
:1031400030E020E044E050E0BE016F5F7F4F84E05C
:103150000E942F188823D1F24E2D50E030E020E05D
:10316000B50185E00E942F18882381F230E020E02D
:1031700041E050E0BE016B5F7F4F86E00E942F1858
:10318000882321F20F2D10E0960150E040E070E01E
:1031900060E087E00E942F18BACFABE0B0E0E3ED2B
:1031A000F8E10C94EF3588E0E9E6F3E0DE011196F2
:1031B00001900D928A95E1F78091B2029091B3024D
:1031C000A091B40289879A87AB872B8540916602CC
:1031D0005091670260916802709169023FB7F8945C
:1031E0008091A5039091A603A091A703B091A80395
:1031F0003FBF841B950BA60BB70B84369105A10529
:10320000B10510F42223C1F010E000E030E020E02E
:103210004BE050E0BE016F5F7F4F83E00E942F18AC
:10322000882369F00E94F208609366027093670237
:1032300080936802909369021092B40281E02B9609
:10324000E4E00C940B36A4E0B0E0E9E2F9E10C9480
:10325000EF35409162025091630260916402709177
:1032600065022FB7F8948091A5039091A603A091D1
:10327000A703B091A8032FBF841B950BA60BB70B18
:1032800011E084369105A105B10518F10E9474146E
:103290006E5F7F4F8F4F9F4F69837A838B839C83B1
:1032A00010E000E030E020E044E050E0BE016F5F5D
:1032B0007F4F82E00E942F18182F882351F00E9420
:1032C000F2086093620270936302809364029093A9
:1032D0006502812F2496E4E00C940B36A5E0B0E063
:1032E000E4E7F9E10C94ED357B0101E010E09E018B
:1032F0002B5F3F4F50E040E070E060E080E00E94D4
:103300002F18182F882309F456C040915E0250915F
:103310005F0260916002709161022FB7F894809112
:10332000A5039091A603A091A703B091A8032FBF76
:10333000841B950BA60BB70B84369105A105B1052F
:1033400048F464E070E083E092E00E94FE089D8112
:10335000891789F104E010E09E012F5F3F4F50E094
:1033600040E070E060E081E00E942F18082F64E0E8
:1033700070E083E092E00E94FE0811E09D819813C6
:1033800010E0102331F10E94F20860935E02709306
:103390005F02809360029093610289819A81AB8180
:1033A000BC8180935A0290935B02A0935C02B0931D
:1033B0005D0211E00EC08091030290910402A09181
:1033C0000502B091060289839A83AB83BC831111F5
:1033D000E4CF80915A0290915B02A0915C02B0917F
:1033E0005D02F70180839183A283B383812F2596A9
:1033F000E6E00C940936A8E0B0E0E1E0FAE10C94D4
:10340000F13566EE7EEF90E080E00E94193760E0D3
:1034100082E090E00E94FB3660E083E090E00E9452
:10342000FB361092F40160E074E184E090E00E94C9
:10343000193760E086E090E00E94FB366FEF87E08E
:1034400090E00E94FB3640E050E0BA0188E090E056
:103450000E940D3760E084E290E00E94FB3660E05D
:1034600087E190E00E94FB3660E08CE090E00E94F3
:10347000FB3660E08DE090E00E94FB3619821A82F4
:103480001B821C821D821E821F82188648E050E02B
:1034900068E170E0CE0101960E94EB3640E050E01A
:1034A000BA0180E290E00E940D3780E00E9474151E
:1034B0000E948D1540E050E0BA018FE090E00E943C
:1034C0000D371092710310927203109273031092D1
:1034D000740382E390E090937203809371034091B0
:1034E000710350917203609173037091740383E1CF
:1034F00090E00E940D372896E2E00C940D3628E00B
:1035000030E043E060E086E30E9453320895ACE08F
:10351000B0E0EDE8FAE10C94EB354F83588769870A
:103520007A878B879C8780910104882399F00E9479
:103530007F1A80E50E94CB328AEB8A95F1F700C0B2
:103540000E94E332887899278038910509F487C072
:103550000E94FB320E943E14882309F46BC00E9433
:10356000F2080091CB011091CC012091CD01309156
:10357000CE016B017C01C01AD10AE20AF30A97015D
:103580008601083011052105310508F453C0609308
:10359000CB017093CC018093CD019093CE0100912B
:1035A0000F04109110042091110430911204601B3B
:1035B000710B820B930B623371058105910580F4C9
:1035C000109205041092040410920704109206044D
:1035D000109209041092080410920B0410920A042D
:1035E00010910E040E948E14482FBE01695F7F4F18
:1035F00084E094E0112309F45FC00E940F0D009154
:103600000E04109101040E948E1441E04827BE016F
:10361000695F7F4F88E094E0011709F450C00E9471
:103620000F0D86E0FE013796ADE1B4E001900D92FA
:103630008A95E1F786E0FE013796DE01119601904A
:103640000D928A95E1F729813A814B815C816D81E8
:103650007E8180E090E02C96E8E00C9407360E9492
:10366000E3320E94E3327C010E94E33220E0E22A4E
:10367000F82A0E94E3328C010E94E33220E0022B00
:10368000182B0E94FB32F894B701809104049091AA
:1036900005040E94EF0D9093050480930404B80183
:1036A00080910604909107040E94EF0D9093070407
:1036B0008093060478944ECF0E94950DA0CF0E946F
:1036C000950DAFCFCF93DF93D82FC62F0E947F1ACF
:1036D0008D2F80680E94CB328C2F0E94CB320E94AB
:1036E000FB328FEC92E00197F1F700C00000DF9110
:1036F000CF910895682F893708F068E760930C042C
:1037000091E090930D0490910104992359F0615038
:10371000811101C064E08FE00E94621B60E080E5DF
:103720000E94621B0895FB0180810E947A1B08950C
:1037300090910C04911101C095E0282F880F330B54
:10374000A901490F511DCA011816190614F081E08C
:1037500090E00E947A1B0895CF93C82F0E947F1A91
:103760008C2F0E94CB328FE792E00197F1F700C0D7
:1037700000000E94E332C82F0E94FB329AE69A951D
:10378000F1F700C08C2FCF910895CF93DF930E9463
:103790004B32269A0E947F1A6AE58AE30E94621BD6
:1037A0002FEF80E792E0215080409040E1F700C089
:1037B000000082E00E94AC1B83E00E94AC1B84E00E
:1037C0000E94AC1B85E00E94AC1B86E00E94AC1BF3
:1037D00060E080E10E94621B80E00E94AC1BD82F59
:1037E00081E00E94AC1BC82F0E94FB32D23419F436
:1037F00081E0C13009F080E081708093010488236A
:1038000041F064E08FE00E94621B60E080E50E946E
:10381000621BDF91CF9108951F920F920FB60F9206
:1038200011242F933F934F935F936F937F938F93C5
:103830009F93AF93BF93CF93DF93EF93FF93D09179
:10384000E900DF708091EC00C82FC17080FDC0E8F6
:103850001092E9008091F000877F8093F0007894C7
:103860000E94540F1092E9008091F00088608093CC
:10387000F000CD2BCF70C093E900FF91EF91DF9165
:10388000CF91BF91AF919F918F917F916F915F91F8
:103890004F913F912F910F900FBE0F901F90189551
:1038A0001F920F920FB60F9211242F933F934F93B5
:1038B0005F936F937F938F939F93AF93BF93EF9398
:1038C000FF938091E10082FF09C08091E20082FFB6
:1038D00005C08091E1008B7F8093E1008091DA0048
:1038E00080FF24C08091D80080FF20C08091DA0042
:1038F0008E7F8093DA008091D90080FF9DC080E1A7
:1039000089BD82E189BD09B400FEFDCF81E08093CD
:10391000B7038091A903811109C00E9482070E9408
:1039200023088091E20084608093E2008091E100AE
:1039300080FF17C08091E20080FF13C08091E200F9
:103940008E7F8093E2008091E20080618093E200AC
:103950008091D80080628093D80019BC85E0809364
:10396000B7038091E10084FF2BC08091E20084FFC7
:1039700027C080E189BD82E189BD89B5982F91700A
:1039800080FFFBCF8091D8008F7D8093D8008091FD
:10399000E1008F7E8093E1008091E2008F7E809332
:1039A000E2008091E20081608093E2008091B803A0
:1039B000882309F447C084E08093B7038091B7035C
:1039C0008091E10083FF27C08091E20083FF23C044
:1039D0008091E100877F8093E10082E08093B703CC
:1039E0001092B8038091E1008E7F8093E100809176
:1039F000E2008E7F8093E2008091E20080618093FC
:103A0000E20042E060E080E00E94F1078091F00077
:103A100088608093F000FF91EF91BF91AF919F91EB
:103A20008F917F916F915F914F913F912F910F9067
:103A30000FBE0F901F90189519BC1092B7031092EB
:103A4000A90374CF8091E30087FD93E09093B703BF
:103A5000B5CF78941F921FB61F9211248F939F9316
:103A6000AF93BF938091A5039091A603A091A70364
:103A7000B091A8030196A11DB11D8093A503909359
:103A8000A603A093A703B093A803BF91AF919F9102
:103A90008F911F901FBE1F9018959C014FB7F894EF
:103AA0008091A5039091A603A091A703B091A803CC
:103AB0004FBF821B930B08952FB7F8948091A503F5
:103AC0009091A603A091A703B091A8032FBF0895DA
:103AD0002F923F925F926F927F928F929F92AF92BE
:103AE000BF92CF92DF92EF92FF920F931F93CF93EB
:103AF000DF938091A103882309F4E1C080919F03A3
:103B00009091A0030E944D1DC29708F4B9C00E9475
:103B10005C1D9093A00380939F038BE294E09093AD
:103B20003206809331060E943E14882309F4E7C0D0
:103B3000C0911904DC2F8BE794E00E94CB0E80919A
:103B40001C048F708A3008F0CCC0805D0E944B0E40
:103B500087E794E00E94CB0E80911B048F708A301F
:103B600008F0C1C0805D0E944B0EDD2309F4C1C086
:103B700084E794E00E94CB0E8C2F82958F708A3060
:103B800008F0B3C0805D0E944B0E8C2F8F708A307E
:103B900008F0ADC0805D0E944B0E8CEF8C0F85331A
:103BA00008F0A7C080E794E00E94CB0E8C2F8450D1
:103BB000990BFC01E55CFB4F84910E944B0E87E959
:103BC00094E00E94CB0E80911F040E94C40D0E94BD
:103BD000AB12809120040E94C40D0E94AB12809110
:103BE00022040E94C40D0E94AB12809121040E9405
:103BF000C40D0E94AB128EE894E00E94CB0E80911F
:103C00000C04811101C085E00E94C40D01960E9440
:103C1000AB1288E894E00E94CB0E80910E048111D3
:103C20006CC080E30E944B0E84E894E00E94CB0EAF
:103C300080911304811101C084E0805D0E944B0ECD
:103C400084EA94E00E94CB0E809177030E94EA0CF4
:103C50000E94D1060E94AB128FE994E00E94CB0E25
:103C6000809175030E94D1060E94AB128DE994E009
:103C70000E94CB0E809171030E94D1060E94AB126C
:103C80008091290490912A04892BF1F580919E035B
:103C90008823A9F00E94F20800919A0310919B03D7
:103CA00020919C0330919D03601B710B820B930B41
:103CB0006F3F7F4F8F4F9F4710F40E94AA16DF91EE
:103CC000CF911F910F91FF90EF90DF90CF90BF9019
:103CD000AF909F908F907F906F905F903F902F90CC
:103CE0000895895A33CF895A3ECF895A4CCF895A81
:103CF00052CF81E00E94D90E62CF81E393CF8BEA4D
:103D000094E00E94CB0EBCCF8091A103882309F4DC
:103D1000BDCF809199038111B9CF0E94C516209122
:103D2000290430912A042115310509F4AFCF80E030
:103D300041E050E0082F10E01A01082E02C0220CCA
:103D4000331C0A94E2F7B10162237323672B11F449
:103D50008F5FF0CF9091980390FF95C0880F880FE8
:103D6000880F8093640110926701895F80936501D9
:103D700083E08093680124E630E047E050E062E6AB
:103D800071E088E70E94C533892B09F07FCFA80135
:103D900025E0440F551F2A95E1F78091980380FF95
:103DA00084C0E8E7F3E080E2DF011D928A95E9F73D
:103DB000A8EAB1E004EA11E08CEAC82E81E0D82E2E
:103DC00097E0592E772473948D91E80129918E0103
:103DD000240F352F311D255D3B4FE82FF0E0E858CB
:103DE000FC4F90E080E0652C681A872C082E01C0FB
:103DF000880C0A94EAF77901A12CE701B9907E01B9
:103E0000B820662D6A196770962E062E000C770B67
:103E1000DB2D01C0DD0F9A94EAF771956195710968
:103E20006770772701C0B6946A95EAF7BD2A60816A
:103E3000962E9B289082A39468E0A612DECF01966E
:103E400031968830910579F6CA16DB0609F0BCCFA9
:103E500004E610E020E230E048E753E060E488E761
:103E60000E94E633892B09F011CFE101C095D0956E
:103E70008091290490912A04C823D923D0932A043D
:103E8000C093290403CF8295880F807680936401C4
:103E90009801369527953695279520936701815E81
:103EA000809365012093680166CF455D5B4F04E612
:103EB00010E020E230E0D2CF0E943E14882319F0B7
:103EC0000E945C1D08950E947414CB0108956091B6
:103ED0006903669570E041E050E081E691E00E9460
:103EE000B436892B19F481E08093B3020E945C1FE1
:103EF0009093AD028093AC028091B4028460809371
:103F0000B40208959091690390FF39C091708111B6
:103F100037C09260909369038091B402816080936E
:103F2000B402662391F02091690330916A034091B5
:103F30006B0350916C0360916D0370916E038091DF
:103F40006F03909170030E94ED166091690366956E
:103F500070E041E050E081E691E00E94B436892BA8
:103F6000B1F00E941A0981E08093AF0220E04091F5
:103F70006C0360916B0380916A030E94131708958C
:103F80008F3010F09C61C6CF880F982BC3CF0E9452
:103F9000671FE9CF809169038695815009F48EE00F
:103FA00061E00E94821F08958091690386958F5F6A
:103FB0008F3008F081E061E00E94821F08959091A7
:103FC000690390FF08C09695981728F0961718F483
:103FD0000E94D41F089561E00E94821F0895A3E10A
:103FE000B0E0E5EFFFE10C94E6358E01045F1F4F72
:103FF00088E0D8011D928A95E9F783E8C82E81E010
:10400000D82EF12CE12CAA24A394B12C2DE8822ED9
:1040100021E0922EF60181916F018F3F09F442C099
:10402000F894E82FE295EF70F0E021A18F70A501E0
:1040300002C0440F551F8A95E2F7CA01922F982BB0
:1040400091A392A18095892382A3789400C0E7E888
:10405000F1E0712C31E021912F3F09F46BC0A22FC8
:10406000A295AF70B0E090968C9190E02F7002C056
:10407000959587952A95E2F780FD5CC0832F782A75
:10408000330F8E169F0639F7F601319780818F3FE7
:1040900011F00E94120A50EA5A95F1F7F801EE0D5C
:1040A000FF1D70828FEFE81AF80AA4E0EA16F10407
:1040B00009F0B0CF48E050E0B8018FE692E00E94EE
:1040C000C136009741F028E0F801AFE6B2E0019078
:1040D0000D922A95E1F700917802892B69F181E030
:1040E0008093F9010E945C1D9093F8018093F70181
:1040F0008091F7019091F8010E944D1D059700F104
:1041000010E007571D4F44E050E06FE672E0C80131
:104110000E94C136B12C892B51F084E0EFE6F2E029
:10412000D80101900D928A95E1F7BB24B3941092C7
:10413000F90107C080E0A3CF8091F9018111D8CFA8
:10414000B12C0E943E14A82EE0917802882309F435
:104150007DC019821A821B821C820E2F10E0075725
:104160001D4F80916A028A30D8F54EE659E1BE01B2
:104170006F5F7F4FC8010E940B14882309F455C05C
:1041800043E259E1BE016F5F7F4FC8010E940B14EB
:10419000882309F44AC04DEC58E1BE016F5F7F4FA0
:1041A000C8010E940B14882309F43FC010926A02D0
:1041B0008091770290E044E050E0BE016F5F7F4F56
:1041C00087579D4F0E94C13621E020930002892B22
:1041D000F1F4A12C8A2D8B296396EDE00C94023624
:1041E0008091FA019091FB010E944D1D843F914006
:1041F00008F0BBCF80910002882359F384E0FE01D0
:104200003196DF011D928A95E9F710920002E09144
:104210007702F0E0E757FD4F89819A81AB81BC813D
:1042200080839183A283B383D5CF80916A028F3F2D
:1042300031F08F5F80936A028A3008F4B9CF0E9410
:104240005C1D9093FB018093FA01D4CFF0E0E75717
:10425000FD4F84E0A3E0B2E001900D928A95E1F772
:1042600064E070E083E092E00E94FE088093020226
:10427000C0900702D0900802E0900902F0900A0274
:104280008091FC019091FD01A091FE01B091FF0190
:10429000C816D906EA06FB06D1F0C092FC01D092FE
:1042A000FD01E092FE01F092FF010E943E14811197
:1042B0000EC00E94F208C61AD70AE80AF90AC0928C
:1042C0006B02D0926C02E0926D02F0926E028BE073
:1042D000EBE0F2E0DE01119601900D928A95E1F794
:1042E00080910B028695F0900C02E0900D02D09028
:1042F0000E02009114021091150210921502112362
:1043000009F468CF10FF0BC0998190FF1CC09091F9
:10431000690391609093690360E00E94821F11FF1E
:1043200006C020E04D2D6E2D8F2D0E94131712FF19
:1043300004C0002359F00E94671F13FF4BCF81E098
:104340008093AF0247CF0E94FC13E9CF0E941A0965
:10435000F4CF86E00E94DB0C0E945C1D9093A902C2
:104360008093A80282E08093AA020895AEE1B0E0B3
:10437000ECEBF1E20C94ED354091FB035091FC0322
:104380006091FD037091FE038091FF039091000402
:104390000E94871A2093FB033093FC034093FD0394
:1043A0005093FE036093FF037093000486E0EBEFED
:1043B000F3E0DE01179601900D928A95E1F786E011
:1043C000FE013796DE011D9601900D928A95E1F768
:1043D00086E0FE013D96DE01119601900D928A95D0
:1043E000E1F786E0FE013196ABEFB3E001900D926C
:1043F0008A95E1F786E0EBEFF3E0DE015996019054
:104400000D928A95E1F786E0FE017996DE01179616
:1044100001900D928A95E1F70B8DEC8C9E2D902BDF
:104420008091AA02992309F41DC1002E000C110BE2
:104430000E2C000CFF088230F1F188F4813009F471
:10444000E8C00E945C1D9093A9028093A80281E0BD
:104450008093AA02109276031092750332C08330C3
:1044600099F1843071F7980117FF04C02227332790
:10447000201B310BC701F7FE04C0882799278E192E
:104480009F09880F991F281739070CF042C08091A7
:10449000A4029091A502E80EF91E40E0F7FE17C1B4
:1044A0007EECE7167FEFF7067CF1F092A502E09232
:1044B000A40280E041C00E945C1D9093A9028093F9
:1044C000A80280E020E069C0C701F7FE04C0882789
:1044D00099278E199F09980117FF04C022273327B7
:1044E000201B310B280F391F8091A6029091A70243
:1044F000821B930B9093A7028093A60218161906AD
:1045000004F780E020E045C022E3E20EF11C4E5C9F
:10451000C5CF8091A2029091A302080F191F80E0DD
:1045200017FFDFC00E3C9FEF19070CF46BC0109310
:10453000A3020093A20240E0082E000C990B62E354
:1045400070E00E9432368091740381115FC081E077
:1045500090E0689F9001699F300D789F300D112485
:10456000642F772761950CF47095CB0162E370E0BE
:104570000E9432368091730341E050E0882311F0AD
:104580004FEF5FEF649FC001659F900D749F900D8A
:104590001124F12CE12C10E000E00987EA868B87DA
:1045A0002C8786E0FE013796DE01119601900D9270
:1045B0008A95E1F786E0FE013196DE01539601907F
:1045C0000D928A95E1F786E0FE017396DE0117965B
:1045D00001900D928A95E1F786E0FE013796ABEFE8
:1045E000B3E001900D928A95E1F70E94020E8111CD
:1045F0006BC08091AB021092AB0281706E96E6E0C8
:104600000C9409360E5C1F4F8E5C8ACF8FEF9FEFA4
:10461000A0CFC701F7FE04C0882799278E199F09EC
:10462000980117FF04C022273327201B310B820F6C
:10463000931F2091750330917603820F931F9093FF
:104640007603809375032091710330917203821772
:1046500093070CF436CF10927603109275030E94E4
:10466000A9212FCF823071F048F4813019F11092D6
:104670007603109275031092AA0243CF853008F496
:1046800040CFF5CF8091A8029091A9020E944D1DC4
:10469000893E934008F435CF1092AA0286E00E942A
:1046A000B70C1092A5021092A4021092A3021092CD
:1046B000A20227CF8091A8029091A9020E944D1DCD
:1046C000C39708F41ECFD3CF81E090E094CF83E36B
:1046D000E816F1040CF4E9CE62E3E61AF10842535D
:1046E000DDCE033311050CF422CF0253110982539E
:1046F00017CFA4E1B0E0EFE7F3E20C94E3358C01CF
:10470000DC0114968C911497882309F4BEC021E033
:104710004C9111965C91119712966C911297139689
:104720007C91139715969C910E9439167C01F80193
:104730008581882309F46AC1C7019757803891059C
:1047400008F064C1FFE0FE1508F48FC08FEF93E01E
:104750000E94D736811189C069ECA62E62E0B62E80
:10476000E1104DC0FE01339686E0DF011D928A956F
:10477000E9F75AE0452E7501BFEFEB1AFB0AC501B8
:104780000E94D73689831A82882309F46EC081304B
:1047900009F07FC06501E2E0CE0ED11CC7010E9486
:1047A000D7368A83882309F460C09FEF980F93302F
:1047B000A0F5F3E0AF0EB11CC6010E94D7368B8383
:1047C000882309F452C01C82DE0111967D01F70195
:1047D0002081222381F2213009F0BAC091818281A7
:1047E000913009F058C0F2E0EF0EF11C65E070E086
:1047F000893311F460E570E00E94D31453C0A11412
:1048000024E0B20691F1C5010E94D736811101C0A2
:10481000EA943FEFA31AB30AA3CF56018430A1F65E
:1048200042E0E42EF12C56012FEFA21AB20AC60183
:104830000E94D736E1E0F0E0EC0FFD1FEE0DFF1D0A
:104840008083882391F08C3741F4E2E0F0E0EC0FB4
:10485000FD1FEE0DFF1D1082B7CF3FEFE31AF30AE5
:10486000650187E0E816F104F1F68091E9018770AF
:1048700061F0D80115968C91882339F080917A02E5
:1048800082FF03C082E00E94C40C6496E0E10C94B5
:10489000FF35570199CF923039F522E0E20EF11C35
:1048A0000E945112FFEFEF1AFF0A8FE99FE0019774
:1048B000F1F700C00000AFE9BFE01197F1F700C0C9
:1048C0000000EFE9FFE03197F1F700C000008FE949
:1048D0009FE00197F1F700C00000AFE9BFE011973A
:1048E000F1F700C0000073CF933031F432E0E30EF3
:1048F000F11C0E942512D6CF943021F08FEFE81AD8
:10490000F80AD0CF92E0E90EF11C30E020E0B701C8
:104910006F5F7F4FD70111964C918053990B8A306E
:10492000910558F02150310908F4BCCFEFE9FFE0C0
:104930003197F1F700C00000F5CF429EF001439E91
:10494000F00D11249C012E0F3F1F842F7B01DFCF20
:10495000E22FF0E0E557FE4F5490822F8695869522
:10496000869590E0FC01E558FE4F64902770712C0D
:10497000022E02C0759467940A94E2F731E0632234
:104980007724FC01E559FE4F8490912C022E02C041
:10499000959487940A94E2F7A1E08A229924FC0175
:1049A000E55AFE4FC490D12C02C0D594C7942A95E5
:1049B000E2F7B1E0CB22DD246114710419F081EE3D
:1049C0000E9451128114910419F086EE0E94511236
:1049D000E9E365E070E05E1202C060E570E0852DFD
:1049E0000E94D3148114910419F086EE0E942512BE
:1049F0006114710419F081EE0E942512C114D104D2
:104A000009F450CF65E070E08CE2F6CEF0921A0423
:104A1000E0921904F8018081918190931C048093A5
:104A20001B04970120543E472830310508F09EC0F2
:104A3000F901E55CF84C0C94683686E0EBEFF3E0A6
:104A4000DE01199601900D928A95E1F786E0FE014C
:104A50003996DE011F9601900D928A95E1F7FA844E
:104A600081E090E001C0880F2A95EAF7D8011596F9
:104A70002C91222341F1F82A83E08093AA028EE14F
:104A800090E09093A7028093A6020E94A921F88A41
:104A900086E0FE013F96DE01119601900D928A9507
:104AA000E1F7CE0101960E9438078093AB0286E0C1
:104AB000FE013196ABEFB3E001900D928A95E1F7DC
:104AC0000E94020ED2CE8095F822DFCFF8018581B8
:104AD000882321F084E08093AA02C7CE0E94A921F6
:104AE000C4CED80115968C91882309F4BECE80914E
:104AF00071039091720305969093720380937103F2
:104B0000409171035091720360917303709174032B
:104B100083E190E00E940D37A8CEF80185818823BB
:104B200009F4A3CE809171039091720305978530AB
:104B3000910514F785E090E0DFCFD80115968C91B0
:104B4000882309F492CE8091730391E089278093A2
:104B50007303D6CFF8018581882309F486CE80912E
:104B6000740391E0892780937403CACF85818823D9
:104B7000F9F08091AA028350823008F4AFCFE1E7C8
:104B8000F1E081E891E021913191E216F30681F0A4
:104B90008E179F07C1F71092AA0286E00E94B70CF9
:104BA0001092A5021092A4021092A3021092A202E7
:104BB000C7019A95F70181159F4108F4FF27D80195
:104BC00015968C91E13DF10540F0E93DF10578F055
:104BD000E730BEE7FB0709F441C0882361F0FE57C8
:104BE000EA30F10540F4ED5BF84C0C946836682F20
:104BF0008E2F0E94340EF801858181115BC3809154
:104C0000AA038272F701E052F847E531F10508F096
:104C1000AAC0E35BF84C0C94683680E00E947A1BD3
:104C20001092130422CE40910C045091130450FBB7
:104C300047F95695537060E070E08FE090E06ACFDE
:104C400081E00E94981B11CE8FEFFBCF8AE0F9CF55
:104C500086EFF7CF90910E0481E089270E94FB0C2C
:104C600004CE80911304811101C084E08F5F181677
:104C70000CF081E0883008F087E080931304F5CDD4
:104C800080911304811101C084E08150F0CF8091A4
:104C9000690380FF1EC0282F2E7F20936903309167
:104CA0006A0340916B0350916C0360916D037091A6
:104CB0006E0380916F03909170030E94ED160E9425
:104CC0001A098091B40281608093B4020E94191382
:104CD000CCCD81608093690361E086950E94821F3C
:104CE000C4CD4AEC5FE164ED7FE10E941409BDCDC3
:104CF00044ED5FE16AEC7FE1F8CF47EA57E161EB11
:104D000077E1F3CF41EB57E167EA77E1EECF4DE88A
:104D100057E16AE977E1E9CF4AE957E16DE877E1E0
:104D2000E4CF43E757E160E877E1DFCF40E857E1C0
:104D300063E777E1DACF4BEB57E165ED77E1D5CF6C
:104D400045ED57E16BEB77E1D0CF61E081E0C6CF75
:104D500065E082E00E94DF1F88CD68E086E0FACF40
:104D60006EE089E0F7CFF7E7EF16FCE7FF0609F4FE
:104D700060C028E7E2162CE7F20609F45EC0F801ED
:104D80008581E080F180882309F49FC0C7010E94DB
:104D9000DA15D82E682FC7010E945D0CB7018D2D42
:104DA0000E94CC150E941A0B7C01882ED801159602
:104DB000AC90159716969C9092943FE09322809128
:104DC000E9018770F1F0CA2CAA20E1F08F2D807FD5
:104DD000803451F080E28E0D883098F0911004C03C
:104DE0008F2D807E803269F080917A0282FF09C027
:104DF00082E00E94C40C8091E9018770CC24C394A6
:104E00008111C12CBF2CB2942FE0B222BBE0BB15A4
:104E100008F4C3C0EB2DF0E0EE59F84C0C94683662
:104E200081E00E94DB0C43E062E081E00E94970C8D
:104E30001CCD81E00E94B70CF6CF82E0FBCF33E0BF
:104E4000E3163CE7F30671F160F4E1149CE7F90620
:104E5000D1F0A1E0EA16ACE7FA0609F090CF0E9483
:104E6000E914BBE5EB16BCE7FB0669F1ECE5EE16D1
:104E7000ECE7FE06F1F0FAE5EF16FCE7FF0609F0B5
:104E80007ECF81E01DC01092AA030E94480F2FEF31
:104E900034E38CE0215030408040E1F700C0000056
:104EA0000E94E1086FEF7FEF90E080E00E941937E9
:104EB000D6CF80917A0282FB882780F991E08927FA
:104EC0000E940C185CCF80E0FBCFC7010E94290C28
:104ED000D82E64CFEF2DEF70DE2E8F2D807F19F04E
:104EE000D29490EFD922AA20B9F0DD2069F080E2B7
:104EF0008E0D883010F0811009C08091AA03D82A45
:104F0000D092AA030E940B0F8E2D45C08091F30111
:104F1000D82AD092F301F6CF8E2D0E942512DD20E3
:104F2000E1F180E28E0D883010F0811004C08D2DEB
:104F30000E94180C06C0D0948091F301D822D09220
:104F4000F3010E940B0F29C0FF2DFF70DF2E8F2D64
:104F5000807F803219F0D29480EFD822882059F0D7
:104F600021E0821609F481C0AA2009F48DC099209D
:104F700009F44FC0C9CF80917A0282FD46C0AA20B1
:104F8000F1F1DD2039F08091AA03D82AD092AA034A
:104F90000E940B0F80E00E945112AB2DA850BB0B5A
:104FA000149710F40E946314CC20A9F08091E901B9
:104FB00080FD11C0F80115828695869586950E9420
:104FC000DB0CC8010E9479238091E90186958695C2
:104FD00086950E94B70C20E0D8014C9111965C9107
:104FE000119712966C91129713967C9113971496C1
:104FF0008C91149715969C910E94391646CC80E0AE
:105000000E942512DD2049F292CFAA20A1F0911032
:1050100004C08D2D0E941B12C0CF31E09312BDCF72
:105020008091F2019D2D9823D91609F4B6CFD82A84
:10503000D092F201B2CF9110B0CF8D2D0E941412F8
:105040009091F2018D2D892329F08D2D8095892352
:105050008093F2018091CF019D2D982309F49DCF7B
:10506000D094D822D092CF0198CFAA2029F085E001
:10507000891508F492CFCDCF94E0991508F48DCF1F
:105080008D2D0E94141289CF9920D1F3A9E38A12A1
:1050900009C1BFEFE7EEF3E0B150E040F040E1F7C7
:1050A00000C000008E2D0E94251277CF6A2D8E2D14
:1050B0000E94340E72CF8F2D837091F5A1106DCFA9
:1050C0004E2D429546954770440F440F8E2D8F709C
:1050D000042E01C0880F0A94EAF72E2D2071E4FEF9
:1050E00007C02FE030E001C0220F4A95EAF7209573
:1050F0003F2D369536953370323069F050F440913B
:10510000F401313029F0822B84230E94E70C45CF33
:10511000842B822BFACF282B8091F4018227F5CFA4
:105120008695AA2011F08F2D8170882309F435CF40
:105130004E2D429546954770440F440F8E2D8F702B
:10514000042E01C0880F0A94EAF72E2D2071E4FE88
:1051500007C02FE030E001C0220F4A95EAF7209502
:105160003F2D369536953370323069F050F44091CA
:105170007703313029F0822B84230E94940C0DCFC9
:10518000842B822BFACF282B809177038227F5CFAF
:105190009F2D9F70F92EAA2029F0892F0E94DB0CE9
:1051A0008E2D38CF8E2D0E9414128F2D0E94B70C99
:1051B000F4CE8E2DA2EF8A16B1F1A81570F0B0EFE3
:1051C0008B16D1F0E1EF8E1691F0AA2009F45EC0A3
:1051D00091109ACE8F2D8F712AC0F3EF8F1651F157
:1051E00024EF8212F2CF80917A0282FD2FC08F2DA0
:1051F0008F71AA20D9F21BC0AA2081F034E03915A2
:1052000008F4CBCE2F2D2F7181E090E001C0880FE4
:105210002A95EAF7909177038927AFCF85E0891522
:1052200008F4BBCEEFCF8F2D8F71A110BFCF0E949E
:10523000DB0CB3CE80E0AA2009F49FCF9F2D9F7195
:1052400081E001C0880F9A95EAF797CFAA2099F0DC
:105250009F2D9F71F92E892F0E94DB0C80917A027D
:1052600082FF07C0A8E0FA9EC001112483608093EA
:10527000E9018F2DDCCF81E00E94C40CB1E0B915AB
:1052800008F08BCE82E00E94C40C87CE992079F082
:10529000893341F4EFEFF7EE23E0E150F040204096
:1052A000E1F7FECE8FE19EE40197F1F7F9CE8F2D65
:1052B0008F717CCFB7E7EB16BCE7FB0609F4B0CDE6
:1052C000E8E7EE16ECE7FE0609F0B9CD82E0A9CDDD
:1052D000CF93DF938091E801807F09F04DC08091EA
:1052E000E701882309F448C0E091FA035091C10313
:1052F000C091E301D091E2016091E4017091E50178
:1053000047E05E17C9F18E2F90E0E49FF001112471
:10531000EE53FC4F2481222391F1489FF001499FD5
:10532000F00D1124DF01AE53BC4F11962C91119753
:105330002C1325C02C912D1322C015962C91159756
:1053400021111DC012962D913C91261B370B283C34
:105350003105A8F48091E8018F7080618093E801A5
:10536000E853FC4F80818F708061808382EE91E0F2
:105370000E9479230E941F0CDF91CF910895FC01B8
:105380003196E770BECFA4E1B0E0E9ECF9E20C940D
:10539000E7358C0186E0F801DE011F9601900D9241
:1053A0008A95E1F7F8018481E58092EEA92E91E0DB
:1053B000B92E9091E601911128C0882319F1EE20B1
:1053C000F1F0C8010E941616F82E8823C1F087E07C
:1053D000F801D50101900D928A95E1F78091E601DF
:1053E000813031F48091E2019091E3010E9409162D
:1053F0000E9468298F2D6496ECE00C940336C80156
:105400000E947923FF24F394F5CFD080C18082805D
:105410009380F090E7012091E4013091E501A4012F
:10542000421B530BFF2009F4D9C0483C510508F03A
:1054300092C08823F9F29091E3018091E801282F2E
:10544000207F09F056C0C91214C09091E201D91210
:1054500010C0E11048C08F7080618093E80182EE37
:1054600091E00E9479238091E801F8018683F12C74
:10547000C1CFE11038C06C2D8D2D0E9463076C2DBB
:105480008D2D0E946307E82E8111F1CFDF86C88A37
:105490008F8598890E940916292F22952F70243014
:1054A00058F49F70223088F0992399F0F801968182
:1054B000907F79F4FE2C9ECF2A5F2F70223068F007
:1054C000C8010E947923EF2CF5CF992311F088238E
:1054D00089F3805E883070F3F3CF803F58F3815FAB
:1054E000833070F7E7CF8091E80181608093E80115
:1054F000BECFC91207C09091E201D91203C0EE20BD
:1055000009F48DC0C8010E941616882309F477CFCC
:10551000EE2009F474CF8091E801803288F0209168
:10552000E2013091E301398728879B868A86909132
:10553000E6019C871D868E87CE0108960E947923FE
:1055400087E0F801A2EEB1E001900D928A95E1F7B3
:105550000E94682957CF9091E801292F207F51F4AC
:1055600082EE91E00E94792387E0F50111928A95FD
:10557000E9F77DCF882309F43DCF8091E3018C11B9
:1055800010C08091E201D8120CC0E1100AC09683CD
:10559000C8010E94792387E0F50111928A95E9F705
:1055A00029CFC8010E941616882309F428CFEE20BF
:1055B00009F425CF8091E801803210F22091E201B8
:1055C0003091E3013A8329839C828B829091E6019A
:1055D0009D831E828F83CE010196B0CF483C51053A
:1055E000D0F6882309F40ECFFE2CEE2009F407CF65
:1055F0008091E3018C1120C08091E201D8121CC07F
:105600008091E80180FD0FC0982F907F61F0868324
:10561000903F31F0982F907F905F8F70892B868319
:10562000C8010E94792387E0F801A2EEB1E0019061
:105630000D928A95E1F7DECEC8010E9416168111FF
:105640007FCF8091E80181608093E801C8010E94CA
:105650007923D0CEABE1B0E0E0E3FBE20C94EF3590
:105660004E8B5F8B688F798F8A8F9B8F192F91114B
:105670001092F3011D8A86E0FE017696DE011F96E8
:1056800001900D928A95E1F70A8D002341F021E007
:105690004F85588969897A89C8010E9439160B8B10
:1056A0001C8B87E0FE013F96DE01189601900D925B
:1056B0008A95E1F7CE0108960E94C32981110CC09A
:1056C00087E0FE013896DE01119601900D928A95D1
:1056D000E1F78C8581110BC017E08091FA0390915E
:1056E000C103891333C06B96E4E00C940B36209110
:1056F000C10330E0C9010196877099274091FA03F0
:105700004817190699F097E0929FD001939FB00D2A
:105710001124AE53BC4FFE01319601900D929A9523
:10572000E1F78093C1030E941F0CD6CF1092AA0309
:105730000E94480F1092C1031092FA0387E0E2EE34
:10574000F1E0DF011D928A95E9F7C6CF819FC00184
:1057500011248E539C4F0E94C329882321F28091EB
:10576000FA0390E00196877099278093FA03B5CFEA
:10577000A6E0B0E0EEEBFBE20C94EF350E945C1D7E
:105780008C018091F5019091F6018017910781F0CD
:1057900019821A820E945C1D682F49815A81792FD3
:1057A00080E090E00E942A2B1093F6010093F5010F
:1057B0002696E4E00C940B361F921FB61F9211241C
:1057C0008F939F93AF93BF938091A403811113C0D4
:1057D0008091A5039091A603A091A703B091A8037F
:1057E0004196A11DB11D8093A5039093A603A0939C
:1057F000A703B093A803BF91AF919F918F911F9082
:105800001FBE1F901895CDB7DEB7A7970FB6F894B7
:10581000DEBF0FBECDBF85B7806885BF85B7806806
:1058200085BF84B7877F84BF0FB6F894A895809111
:105830006000886180936000109260000FBE80E875
:1058400090E00FB6F89480936100909361000FBED2
:1058500081EE99E09093BD018093BC010E94820784
:105860000E9423088091E20084608093E200789493
:105870008091B7038823A1F01091E9001F709091E7
:10588000EC00892F817090FD80E8182B1092E900C0
:105890008091E80083FD0E94540F1F701093E9006F
:1058A00082E084BD93E095BD9AEF97BD80936E0032
:1058B00010926B0210926C0210926D0210926E02A6
:1058C0000E946716811102C00E948D150E948E14DD
:1058D0008093000180910001882309F46BC010922D
:1058E0006A018EE180936B010E943E1481110E9437
:1058F0006B34809100018091000194E0811190E06F
:105900009093780284E0891B8093770284EF0E9451
:10591000120A85EF0E94120A86EF0E94120A87EF90
:105920000E94120A07E811E0EDE8EE2EE1E0FE2EFB
:10593000D8018D918D018F3F11F00E94120AE0165F
:10594000F106B1F788E0E9E8F2E0DF01C82E1D9228
:10595000CA94E9F7EFE6F2E0DF011D928A95E9F7D4
:105960000E942318811102C00E94FB1982E090E07E
:105970000E94D73680937C0284E090E00E94E53656
:1059800090937A02809379020E94EF1FEFE3FCE983
:105990003197F1F700C000000E94EF1F809189024B
:1059A00080FF0CC06FEF7FEF90E080E00E9419371E
:1059B0000E94E1088EE180936A0194CF83E090E039
:1059C0000E94D7360E94E70C0E943E14882309F4F7
:1059D00099C180E08093980380E8809328040E9416
:1059E00025336BE070E082E292E00E94801688230B
:1059F000E9F18091980365E070E081FD85C18DE15A
:105A000092E00E948016882389F16DE070E08BE0BF
:105A100092E00E948016882349F10E94F208605AA1
:105A200075418F4F9F4F60939A0370939B038093B0
:105A30009C0390939D03EBE2F4E080E092E0DF01B1
:105A40009C011D9221503040E1F7F0933206E09323
:105A500031068FEF9FEF90932A048093290481E011
:105A60008093A10380939E031092990380917B02FF
:105A7000811178C00E942318811104C00E94FB1973
:105A80000E94EF1788E090E00E94DF364B015C0136
:105A900084E290E00E94D736282F30E040E050E0CA
:105AA00060E070E080E090E000E20E947536282916
:105AB00039294A295B292093690330936A0340936B
:105AC0006B0350936C0360936D0370936E0380932C
:105AD0006F03909370038091B40283608093B4024B
